:020000040800F2
:100000007808002089010008D31200086D1100084B
:10001000D11200088F0200087515000800000000CA
:10002000000000000000000000000000D7120008DF
:100030009102000800000000D51200080513000816
:10004000A3010008A3010008A3010008A301000800
:10005000A3010008A3010008A3010008A3010008F0
:10006000A3010008A3010008A3010008A3010008E0
:10007000A3010008A3010008A3010008A3010008D0
:10008000A3010008A3010008A3010008A3010008C0
:10009000A3010008A3010008A3010008A3010008B0
:1000A000A3010008A3010008A3010008A3010008A0
:1000B000A301000879130008A3010008A3010008A8
:1000C000A3010008A3010008A3010008A301000880
:1000D000A3010008A3010008A3010008A301000870
:1000E000A3010008A3010008A301000800F002F822
:1000F00000F03AF80AA090E8000C82448344AAF188
:100100000107DA4501D100F02FF8AFF2090EBAE885
:100110000F0013F0010F18BFFB1A43F0010318473B
:10012000081E0000281E0000103A24BF78C878C1BD
:10013000FAD8520724BF30C830C144BF04680C60ED
:10014000704700000023002400250026103A28BF35
:1001500078C1FBD8520728BF30C148BF0B60704739
:100160001FB51FBD10B510BD00F058F81146FFF7C0
:10017000F7FF01F011FA00F076F803B4FFF7F2FF91
:1001800003BC00F07DF8000009488047094800479B
:10019000FEE7FEE7FEE7FEE7FEE7FEE7FEE7FEE737
:1001A000FEE7FEE704480549054A064B7047000094
:1001B00077130008ED00000878020020780800207E
:1001C00078040020780400204FF0000200B51346A8
:1001D00094469646203922BFA0E80C50A0E80C5067
:1001E000B1F12001BFF4F7AF090728BFA0E80C5018
:1001F00048BF0CC05DF804EB890028BF40F8042B11
:1002000008BF704748BF20F8022B11F0804F18BF7D
:1002100000F8012B7047704770477047754600F033
:100220002BF8AE4605006946534620F00700854688
:1002300018B020B5FFF7B6FFBDE820404FF000062C
:100240004FF000074FF000084FF0000B21F00701BE
:10025000AC46ACE8C009ACE8C009ACE8C009ACE801
:10026000C0098D46704710B50446AFF300802046A4
:10027000BDE81040FFF781BF00487047140200201E
:1002800001491820ABBEFEE7260002007047FEE7DA
:10029000704772B6FEE700002DE9F84FDFF8B8911D
:1002A0000024A9F1040B23460F2709F1040AABF13E
:1002B000040EC9E00125A5402A40AA427DD1674E1F
:1002C000D1F804C0ACEB0608B44532D014DCBCF164
:1002D000030F3AD009DCBCF1000F2AD0BCF1010FAA
:1002E0001CD0BCF1020F31D11DE0BCF1110F17D0B1
:1002F000BCF1120F2AD119E0B8F5881F19D006DC1D
:10030000B8F5803F15D0B8F5801F1FD111E0B8F5C2
:10031000001F0ED0B8F5041F18D10AE0CB6815E015
:10032000CB681B1D12E0CB6808330FE0CB680C33A1
:100330000CE08B682BB1012B4FF0080303D0456113
:1003400004E0042302E0056100E00023FF2A01D855
:10035000064601E000F104064FEA840501D9A5F143
:100360002005D6F8008007FA05FC28EA0C0803FAF5
:1003700005F548EA0508C6F800804D68ED0062D52D
:10038000374DAE6946F00106AE61AD6924F0030653
:1003900005F001050095334D06EB050CDCF808501F
:1003A000A607360F07FA06F825EA0805DFF8B88031
:1003B000404503D14FF0000817E044E0DFF8AC807F
:1003C000404502D14FF001080FE0DFF8A48040451E
:1003D00002D14FF0020808E0DFF89880404502D1D2
:1003E0004FF0030801E04FF0040808FA06F848EA65
:1003F0000508CCF808804D68D9F80060ED024D463C
:1004000001D5164300E096432E604D68DAF800608F
:10041000AD02554601D5164300E096432E604D6867
:10042000DBF80060AD035D4601D5164300E096435E
:100430002E604D68DEF80060ED03754601D5164369
:1004400000E096432E60641C0D682A46E5407FF468
:1004500031AFBDE8F88F0000080401400000111022
:10046000001002400000014000080140000C014063
:100470000010014000140140C26821EA02030A4052
:1004800043EA0241016170470AB101617047090402
:10049000FBE7000001488068704700000C00002066
:1004A00070B5040025D094F83D00002520B984F8EB
:1004B0003C50204600F0B8F8242084F83D00206825
:1004C000016821F0010101602068016841F40041E8
:1004D00001602068016821F40041016000F00AFA1F
:1004E0004D4A6168914201D84C4900E04C4988422C
:1004F00001D2012070BD4B492368B0FBF1F15E6869
:1005000026F03F060E435E606368934206D94FF4BF
:10051000967359434FF47A73B1FBF3F12368491C86
:100520001E6A26F03F06314319626168914210D875
:100530004900401EB0FBF1F2521CC2F30B02042A28
:1005400001D2042022E0B0FBF1F0401CC0F30B000C
:100550001CE0A268F2B301EBC10303EB0116431EDA
:10056000B3FBF6F35B1C43F480431B0549D092B305
:1005700001EBC10202EB0111401EB0FBF1F0401C87
:10058000C0F30B0040F4804040F400402168CA6989
:100590004CF6FF739A431043C861D4E90710014336
:1005A0002068026822F0C00211430160D4E903010F
:1005B00001432068826848F2FF339A431143816007
:1005C000D4E9050108432168CA6822F0FF021043FC
:1005D000C86001E00EE016E02068016841F001010A
:1005E00001602564202084F83D00256384F83E5096
:1005F000002070BD01EB4106431EB3FBF6F35B1C0C
:10060000B3E70120C2E701EB4101401EB0FBF1F06E
:10061000401CC0F30B00B7E7A086010080841E00D9
:1006200000093D0040420F0010B586B00021009146
:1006300001910291039100681349884222D1134C21
:10064000A06940F00800A061A069694600F00800B8
:1006500004904FF44070009012200190032003900A
:100660000B48FFF719FE0B48416841F0E06141F08B
:1006700002014160E06940F40010E061E06900F4CB
:100680000010049006B010BD00540040001002405D
:10069000000C0140000001400248816802781144CA
:1006A000816070470C000020074810B5016841F0D8
:1006B00010010160032000F075F80F2000F006F82B
:1006C00000F024F8002010BD0020024070B50D4D50
:1006D00004464FF47A712878B1FBF0F00A490968B2
:1006E000B1FBF0F000F0DCFA48B9102C07D2002280
:1006F0002146501E00F036F800206C6070BD0120CD
:1007000070BD00000C000020180000200C4808B547
:10071000816941F001018161816901F0010100916C
:10072000C16941F08051C161C06900F08050009002
:100730000448416821F0E06141F00071416008BD6A
:100740000010024000000140002809DB00F01F02F9
:10075000012191404009800000F1E020C0F8001123
:1007600070470000F0B40E4B1B680C46C3F3022325
:10077000C3F10705042D00D90425191D072901D24D
:10078000002300E0DB1E012606FA05F1491E214088
:1007900099409E40761E16403143F0BC00F0EBBEFF
:1007A0000CED00E0064900F0070208684FF6FF0371
:1007B000184040EA0220034A1043086070470000D6
:1007C0000CED00E00000FA052DE9F0470F460500AA
:1007D00061D0434E306800F00700B84209D230685B
:1007E00020F0070038433060306800F00700B8425E
:1007F00051D128683B4C810712D5400703D560686A
:1008000040F4E06060602878000703D5606840F439
:10081000605060606068A96820F0F0000843606084
:100820002878C00728D06868012810D021680228DD
:1008300010D0890700292EDA616821F003010143F5
:100840006160FFF727FE804641F288390DE021689C
:100850008903EFE78901EDE7FFF71CFEA0EB080134
:10086000494502D90320BDE8F0876068696800F057
:100870000C00B0EB810FEFD1306800F00700B842F8
:100880000BD9306820F0070038433060306800F042
:100890000700B84201D00120E5E72878400705D5D8
:1008A0006068E96820F4E060084360602878000729
:1008B00006D56068296920F4605040EAC100606094
:1008C00000F038F86168084AC1F30311515CC84070
:1008D0000649086006480068FFF7F8FE0020C2E7F6
:1008E00000200240001002400A1F000818000020EB
:1008F000100000200448054900684968044AC1F313
:100900000221515CC84070471800002000100240CE
:100910001A1F00080448054900684968044AC1F3E1
:10092000C221515CC84070471800002000100240EE
:100930001A1F00080E4A51680E4801F00C03042BE0
:1009400011D0082B0FD10C48C1F38343C903C05CFD
:100950000AD55168084AC1F34041921E515C054ACC
:100960005043B0FBF1F07047044948437047000022
:100970000010024000127A00FA1E000800093D0033
:100980002DE9F84F040070D02078C04DC00749D041
:100990006868C0F38100012807D06868C0F381004F
:1009A000022809D16868C00306D52868800339D5B4
:1009B00060680028E7D035E06068B0F5803F0BD074
:1009C00010B1B0F5A02F11D0286820F48030286035
:1009D000286820F4802002E0286840F480302860F5
:1009E000606890B1FFF756FD06460AE0286840F4BB
:1009F00080202860F0E700BFFFF74CFD801B6428D3
:100A000073D828688003F7D50CE0FFF743FD06464E
:100A100005E000BFFFF73EFD801B6428F0D8286882
:100A20008003F7D420789A4E80074FF001094FF0E9
:100A3000000839D5686810F00C0F07D06868C0F35B
:100A40008100022809D16868C00306D4286880079D
:100A500014D52069012808D110E02069B0B1C6F88A
:100A60000090FFF717FD074605E00AE1FFF712FDCA
:100A7000C01B0228C4D828688007F7D52868616998
:100A800020F0F80040EAC10028600DE0C6F80080C0
:100A9000FFF700FD074604E0FFF7FCFCC01B02283F
:100AA00023D828688007F7D4207800072CD5794808
:100AB000A169D9B1C0F80090FFF7ECFC074604E04B
:100AC000FFF7E8FCC01B02280FD8686A8007F7D53B
:100AD00071484FF4FA510068B0FBF1F0009000BF8C
:100AE0000098411E0091FAD20EE080E0C0F800802C
:100AF000FFF7D0FC074604E0FFF7CCFCC01B022840
:100B000075D8686A8007F7D42078400760D5E8690F
:100B10000027C00008D4E86940F08050E861E86927
:100B2000012700F0805000905C480168C90513D48B
:100B30000168834641F480710160FFF7ABFC824697
:100B400006E000BFFFF7A6FCA0EB0A0064284ED821
:100B5000DBF80000C005F5D5E06801280AD008B12F
:100B6000052813D0286A20F001002862286A20F0A6
:100B7000040002E0286A40F001002862E06841F2C7
:100B8000883B98B1FFF786FC82460BE0286A40F06C
:100B900004002862EEE700BFFFF77CFCA0EB0A012F
:100BA00059455AD8286A8007F6D50CE0FFF772FC41
:100BB000824605E0FFF76EFCA0EB0A0159454CD8D0
:100BC000286A8007F6D41FB1E86920F08050E861F8
:100BD000E06988B36968C1F38101022944D0022821
:100BE000C6F8608004D0FFF755FC044638E034E0D6
:100BF000FFF750FC074604E0FFF74CFCC01B02283F
:100C00002BD828688001F7D4206AB0F5803F05D141
:100C10006868A16820F4003008436860D4E90801DE
:100C20000843696821F4741108436860C6F860904D
:100C3000FFF730FC044606E025E000BFFFF72AFC82
:100C4000001B022809D828688001F7D51BE000BFE7
:100C5000FFF720FC001B022802D90320BDE8F88F13
:100C600028688001F4D40EE00128F7D06868226A71
:100C700000F48031914204D1616A00F4701088421E
:100C800001D00120EAE70020E8E700000010024060
:100C900000004242800442421800002000700040E0
:100CA00010B5401EB0F1807F01D3012010BD4FF080
:100CB000E02460610F21601700F05DFC0020A0615E
:100CC00007202061002010BD7047704770B590F874
:100CD0003C20012A26D0012480F83C40022280F8E2
:100CE0003D2003685A689D6822F070060A68324306
:100CF0005A600D4B02689A4208D0B2F1804F05D07D
:100D00000A4B9A4202D00A4B9A4204D1496825F014
:100D100080031943916080F83D40002180F83C1029
:100D2000084670BD022070BD002C01400004004048
:100D30000008004010B5040003D094F83D0010B145
:100D400007E0012010BD002084F83C00204600F0A0
:100D50001FF8022084F83D00211D206800F032FBBE
:100D6000012084F8460084F83E0084F83F0084F8AF
:100D7000400084F8410084F8420084F8430084F87D
:100D8000440084F8450084F83D00002010BD0000B8
:100D900008B500680B49884212D10B48C16941F07F
:100DA0000201C161C069002200F0020000901146FA
:100DB0001D20FFF7D7FCBDE808401D20FFF7C4BC8D
:100DC00008BD0000000400400010024090F83D10F3
:100DD000012901D001207047022180F83D100168EF
:100DE000CA6842F00102CA6000680B49884208D014
:100DF000B0F1804F05D00949884202D008498842A5
:100E000004D1816801F00701062903D0016841F08F
:100E10000101016000207047002C014000040040E7
:100E20000008004070B5044690F83C0000250128F9
:100E300017D0012684F83C60022084F83D00206829
:100E4000826822F0770222F47F428260086850288C
:100E500038D00DDC20284FD005DC90B3102811D1FC
:100E60004AE0022070BD302846D040280AD13BE03D
:100E700060282FD070280DD0B0F5805F03D0B0F57A
:100E8000005F12D0012584F83D60002084F83C000A
:100E9000284670BDCB68D1E90121206800F0C8FA6E
:100EA0002068816841F0770109E0CB68D1E9012130
:100EB000206800F0BDFA2068816841F480418160BB
:100EC000E1E719E0CA684968206800F0D3FA5021C8
:100ED000206806E0CA684968206800F0DCFA6021F2
:100EE000206800F0AFFACEE7CA684968206800F0D1
:100EF000C1FA40212068F4E7226801461046F0E775
:100F000090F83C20012A0CD0012200F83C2F02234B
:100F1000437050F83C3C5961427000210170084612
:100F2000704702207047704770B504460068016939
:100F30004FF00005C943890715D4C168C943890723
:100F400011D4E91E016101202077206880698007A3
:100F5000204602D0FFF7E7FF04E000F098F82046B3
:100F600000F096F8257720680169C943490717D42E
:100F7000C168C943490713D46FF00401016102201D
:100F800020772068806910F4407F204602D0FFF768
:100F9000CAFF04E000F07BF8204600F079F82577DE
:100FA00020680169C943090716D4C168C943090704
:100FB00012D46FF008010161042020772068C06915
:100FC0008007204602D0FFF7AEFF04E000F05FF894
:100FD000204600F05DF8257720680169C943C906FD
:100FE00017D4C168C943C90613D46FF01001016159
:100FF000082020772068C06910F4407F204602D086
:10100000FFF791FF04E000F042F8204600F040F8BE
:10101000257720680169C943C90708D1C168C94358
:10102000C90704D1891E0161204600F032F820680A
:101030000169C943090609D4C168C943090605D431
:101040006FF0800101612046FFF73EFE20680169D4
:10105000C943490609D4C168C943490605D46FF09C
:1010600040010161204600F016F820680169C9437B
:1010700089060BD4C168C943890607D46FF02001E3
:1010800001612046BDE87040FFF71FBE70BD70478C
:10109000704700F0DFB9704770B5040004D094F8D1
:1010A0004100002510B106E0012070BD84F84050D9
:1010B000204600F023F8242084F841002068C1680D
:1010C00021F40051C160204600F0F8F92068016960
:1010D00021F4904101612068416921F02A014161B8
:1010E0002068C16841F40051C1606564202084F823
:1010F000410084F842006563002070BD30B585B0C2
:1011000000240094019402940394006814498842D6
:1011100024D11448816941F480418161816901F4DD
:1011200080410491816941F00401816180690E4D23
:1011300000F0040004904FF4007000900220019031
:101140000320039069462846FFF7A6F82815CDE945
:101150000004694628460294FFF79EF805B030BDAA
:10116000003801400010024000080140FEE7000086
:1011700070B586B000241C48009401940294039436
:10118000816941F010018161816901F010010491D0
:10119000816941F020018161816901F020010491A0
:1011A000816941F004018161816901F004010491C8
:1011B000816941F00801816180690C4E00F00800EE
:1011C0004FF400550490002229463046FFF75CF9A1
:1011D00001200095CDE901040220039069463046C4
:1011E000FFF75AF806B070BD001002400010014031
:1011F0000D4810B50B4901600C49416000214FF4C6
:1012000080428160C0E9031241618161C161016274
:10121000FFF746F9002803D0BDE81040FFF739B8C2
:1012200010BD0000005400402C000020A0860100EA
:1012300010B586B0002417480094019402940394DA
:10124000049413490594016041F61F41C0E901145B
:101250006321C0E903148461FFF76CFD08B1FFF757
:1012600018F84FF48050009069460A48FFF7DAFDFD
:1012700008B1FFF70EF8049404A906480594FFF797
:1012800025FD002801D0FFF704F806B010BD0000CE
:1012900000040040800000200C4810B50A4901609D
:1012A0004FF4E1314160002181600C22C160C0E94E
:1012B00004128161C161FFF7EFFE002803D0BDE891
:1012C0001040FEF7E6BF10BD00380140C800002006
:1012D000FEE7FEE770477047401EB0F1807F01D304
:1012E000012070474FF0E0214861054AF02082F864
:1012F000140D00208861072008610020704700005D
:101300000FE000E00348016811B10168491E016067
:10131000FFF7C2B90800002030B58FB02821684619
:10132000FEF752FF14210AA8FEF74EFF0121080420
:10133000CDE900100024029402250491CDE9075064
:101340004FF4E01009906846FFF71AFB08B172B637
:10135000FEE70F20CDE90A054FF48060CDE90C408F
:1013600002210AA80E94FFF72FFA002801D072B6C6
:10137000FEE70FB030BD70470148FFF7D5BD000054
:101380008000002010B50B4C00220B4BD4E91A0151
:1013900000F0B6F90022094B00F08EFC09D20020C3
:1013A000C4E91A00BDE810404FF400510448FFF7AB
:1013B00063B810BD100100200000F03F000069403C
:1013C00000100140F0B50268164B174C174D4FF056
:1013D0008047984205D0B84203D0A04201D0A8422D
:1013E00003D122F070064A683243984205D0B842D1
:1013F00003D0A04201D0A84203D122F44074CA68AD
:1014000022434C6922F08002224302608A68C26251
:101410000A688262984201D1096901630121416130
:10142000F0BD0000002C0140000400400008004016
:1014300010B5846842EA032224F47F440A4322431D
:10144000826010BD826822F070020A4342F00701F8
:1014500081607047064A0649121D12680968824277
:1014600004D1D1F88000002800D000477047000068
:101470002400002010B5036A046A24F00104046209
:10148000846924F0F00444EA021423F00A020A43B7
:101490008461026210BD10B5036A046A24F010046E
:1014A0000462846923F0A00324F4704444EA023205
:1014B00043EA01118261016210BD000070B504466B
:1014C00000680169E26821F440511143016121691A
:1014D000A0680843616908432168CA6841F20C6347
:1014E0009A430243CA6020684169A26921F44071AD
:1014F000114341611E492068884202D1FFF70AFA70
:1015000001E0FFF7F7F900EBC00101EB00126068A2
:1015100064218000B2FBF0F3B3FBF1F36FF0180627
:101520007343B2FBF0F5B2FBF0F605EB8305322313
:1015300003EB0515B5FBF1F5B6FBF1F605F0F0058B
:1015400005EB0615B2FBF0F6B2FBF0F0B0FBF1F0E4
:101550006FF01802504306EB800003EB0010B0FB65
:10156000F1F0216800F00F002844886070BD000091
:1015700000380140FEE70907090E002804DB00F1EE
:10158000E02080F80014704700F00F0000F1E02028
:1015900080F8141D70470000FFF786F8FFF7BCFEC7
:1015A000FFF7E6FDFFF724FEFFF776FEFFF740FEAC
:1015B000DFF89480D8F8000000F0DBFA234E002218
:1015C000334600F051F900F0A7FAFFF785FE204CF2
:1015D0000125C0B165602F06D8F8000000F0C9FAF7
:1015E0000022334600F040F900F096FA6168491C89
:1015F00061606168B0FBF1F1B942F7D26168B0FB9C
:10160000F1F0FFF769FE6068A060114E00273770A7
:1016100000F028F8DFF83CA0DFF83C804FF40059D8
:1016200049465046FEF728FFA0680028F8D16068B8
:10163000A060307818B1D8F8000008A101603570BA
:1016400000F05CF83770EBE71800002000408F4096
:101650000000002000100140241F00084F76657232
:1016600072756E0070B520491E4A1D480988204BCE
:1016700041F61F4542F821001C4A43F821201D492C
:1016800030240560C0E9011442F21071C160CC2120
:10169000016100218161C161016209234162037519
:1016A00043758375C375C0F88410C0F88810C0F8FE
:1016B0008C10C0F890101049C0F880101068856236
:1016C0001068C46201211046D460FFF719FC074876
:1016D000FFF77CFBBDE870400448FFF777BB0000D4
:1016E0008001002024000020200000208000002035
:1016F0002800002000A24A0485130008704700005B
:1017000010B591EA030F48BF83F0004300F1128344
:10171000841A71EB030C05D2121943EB0C03001B66
:1017200061EB0C01DFF824E14FEA1154A4EB135CE8
:101730001EEA430F18BF9EEA445F73D023EA0E03EC
:10174000DCF1200E21EA045143F4801332D322FA53
:101750000CFE10EB0E0023FA0CFE41EB0E01CCF157
:10176000200E03FA0EFE10EB0E0051F10001B1F550
:10177000801FCCF1200E32D201EB045112FA0EF28E
:10178000BDE8104058BF7047401C38BF5FEA4202B6
:1017900018BF7047002814BF20F0010041F100017C
:1017A0004FEA410313F5001F38BF7047A1F1C04154
:1017B00000F07CBA012A43EB0302ACF1200CDCF10F
:1017C0001F0E32BF4FF0000E23FA0CF310EB030094
:1017D00041EB0451B4EB115FD0D0A1EB045101F502
:1017E000801149085FEA300001EB04510ED350F13B
:1017F000000038BF12FA0EFE08D1BDE81040C9E75C
:10180000401C38BF5FEA4202CAD1C3E7BDE81040BE
:101810004FEA410313F5001F38BF7047A1F1C041E3
:1018200000F044BA9EEA445F08D011EA5E0FBDE8BA
:10183000104004BF01F0004100207047BDE8104097
:1018400070B500F0E5F900BF64FBBE3E0000E0FFAC
:10185000491058BFC1F140415B1058BFC3F140432C
:101860008B42EFF3008070472DE9C04130B4DFF8C0
:10187000A0C23CEA111418BF3CEA131400F0EC803B
:1018800081EA03051CEA111444EAD57418BF1CEA66
:10189000131500F0C780A4EB05044FF0004545EA9E
:1018A000C12145EAC32341EA505143EA525304F1AE
:1018B0007F74994204F500344FEAC0204FEAC222F7
:1018C00008BF904200F09C804FEA13650FF240166B
:1018D000765D4FEA134506FB05F7C7F1807706FBF7
:1018E00007F74FEAD737A7FB03687642C8F5803879
:1018F000A7FB06CE38BFA8F1010807FB08E64FF0AA
:10190000000EA6FB028CE6FB03CEDCF1000CCEF150
:10191000004E38BFAEF1010EA6FB0C584FF0000789
:101920004FF00005E6FB0E87A1FB08C6A0FB07CE23
:1019300016EB0E0645F10005E1FB076515F1E04EDB
:101940007EBFA4F580345FEA46066D4116F180073C
:1019500045F100054FEA17274FEA066647EA056793
:10196000A6F1DE46B6F1805F4FEA15251FD938464D
:1019700024F0010C05EBC471BCF1FE6F01EB0C11FE
:1019800002D8F0BCBDE8008124425CBF01F5801E96
:101990009EEAC47F02D4F0BCBDE80081244238D462
:1019A000F0BCA1F1C041BDE8004100F07FB94FEAB1
:1019B000D22242EA43524FEAD323A7FB02864FEAE0
:1019C000D02040EA415007FB03661EEA0E0F4FEAA3
:1019D000D12105FB026658BFA6EB0056B6EB0056B8
:1019E0004FEA520E4EEAC37E18EB0E0E56EB530E24
:1019F000BDD518EB02085E417F1C55F10005B6E726
:101A00004FF480154FF000074FF000064FF000082C
:101A1000ADE7F0BC4FF0000001F1C04101F0004122
:101A2000BDE8008111EA0C1F0CEA131500D00CE090
:101A300013EA0C1F00F025804FF00000F0BC81EA93
:101A4000030101F00041BDE80081F0BCBDE80041A8
:101A500081EA030100F02AB9F0BCBDE8004170B58D
:101A600000F0D6F8097EFC3E00F007B881EA0301D9
:101A70004FF0000001F00041704781EA030100F0DF
:101A800015B9F0BCBDE800414FF000002149704796
:101A9000FFFDFBF9F7F5F4F2F0EEEDEBE9E8E6E433
:101AA000E3E1E0DEDDDBDAD8D7D5D4D3D1D0CFCDBA
:101AB000CCCBCAC8C7C6C5C4C2C1C0BFBEBDBCBBF3
:101AC000BAB9B8B7B6B5B4B3B2B1B0AFAEADACABEE
:101AD000AAA9A8A8A7A6A5A4A3A3A2A1A09F9F9EC8
:101AE0009D9C9C9B9A99999897979695959493937A
:101AF000929191908F8F8E8E8D8C8C8B8B8A898911
:101B00008888878786858584848383828281818093
:101B10000000FF070000F87F4FEA1153A3F5806330
:101B2000D3F11E03A8BFD3F1200C08DB4FF0004215
:101B300042EAC12252EA505232FA03F07047094297
:101B40000BD4102BC4BF0020704703F5787CBCF188
:101B5000FF3F05D04FF0FF3070474FF00000704757
:101B600070B500F055F800BF4992248000207047FE
:101B7000F0E7B0FA80F310FA03F10AD0C3F11D03C5
:101B800003F580634FEA41504FEA035202EBD12143
:101B900070474FF00000704751EA030C17D41CF552
:101BA000801F58BFBCF5801F00F10680994218BF06
:101BB000704708BF9042704707D711F5801F58BF84
:101BC00013F5801F19D499427047894270471CF55C
:101BD000801F08D5BCF5801FF7D58B4218BF704712
:101BE00008BF824270474FF4001C1CEB410F38BF06
:101BF0001CEB430F01D28B42704770B500F008F820
:101C0000922449004FF000514FF08053FFF720BE5F
:101C10000EF1020E2EF0030E5EF8046B364205D470
:101C2000012A43EB030515F5001F12D8012841EBEB
:101C3000010C1CF5001F0CD80ED14FEAD17C15F514
:101C4000001F0CEB4C0C0CF1020C08BF4CEBD37CCE
:101C500004E04FF0080C01E04FEAD37C0CEB4C059C
:101C600026FA05F606F00706B6F1040C06D20EEBCE
:101C7000860CBDE870404CF0010C6047DFE80CF0CA
:101C8000090B02024FF000414FF00000A1F50021C6
:101C900070BD19461046012851EB010418BFD4F558
:101CA000001484BF002001F0004170BD0808A0F5B9
:101CB00000114FEA3101704753EA010C17D41CF5AB
:101CC000801F58BFBCF5801F00F106808B4218BFF3
:101CD000704708BF8242704707D713F5801F58BF6F
:101CE00011F5801F19D48B4270479B4270471CF539
:101CF000801F08D5BCF5801FF7D5994218BF7047E3
:101D000008BF904270474FF4001C1CEB430F38BFD4
:101D10001CEB410F01D2994270470FB40CBC03BCBD
:101D2000FFF76BBF10B591EA030F48BF83F0004384
:101D30003FF5EEAC841A71EB030C07D212198CF04C
:101D4000004C43EB0C03001B61EB0C01DFF8A4E13A
:101D50004FEA1154A4EB135C1EEA430F18BF9EEA2E
:101D6000445F00F0B08023EA6E03524221EA04513E
:101D7000C3EB6E0338BF5B1EDCF1200E25D322FAC5
:101D80000CFE10EB0E0043FA0CFE41EB0E01CCF101
:101D9000200E03FA0EFE10EB0E0051F10001CCF103
:101DA000200E29D412FA0EF201EB0451BDE81040C6
:101DB00058BF7047401C1CBFB2F1004F704700284D
:101DC0000CBF491C20F00100704712EB020E43EBE0
:101DD000030218BF4FF0010E4EEA4202ACF1200C94
:101DE000DCF11E0E54D943FA0CFE10EB0E0051F13B
:101DF000FF31CCF11E0ED5D50EF1010E12FA0EFEFA
:101E0000404141EB010101EB445C5FEA5C5C10D9AD
:101E100010EBDE7001EB045138BFBEF1004FBDE89E
:101E2000104018BF704700280CBF491C20F001006B
:101E3000704730D24FEAD42C11F5001124F400641D
:101E40001BD0B1FA81F20B3AA41AA41ED2F12003DE
:101E5000914030FA03F31943904001EBCC71002C10
:101E600001EB0451BDE81040A8BF704701F1C0412B
:101E70004FF0000001F000417047B0FA80F310FA13
:101E800003F100D110BDE41A173C4805C90AE4E784
:101E900001EB045110BD491001EB0451BDE81040A5
:101EA0004FEA300002E04FF0000170474A0008BFDF
:101EB0000042F8D0B2F5001F28BF704701F0004182
:101EC0004FF0000070479EEA445F07D011EA5E0FB2
:101ED000BDE8104004BF002100207047BDE810405D
:101EE00070B5FFF795FE00BF40DFF63E83F000417E
:101EF000104670470000E0FF0102020304050607D8
:101F000008090A0B0C0D0E0F101000000000000055
:101F10000000010203040607080900000000010296
:101F2000030400001C000020481F000800000020DF
:101F30002C00000028010008741F00082C0000205D
:101F40004C080000440100080000000001000000EF
:101F5000010000000100000010000000000000006F
:101F60000024F40000000000000000000000000059
:041F7000000000006D
:04000005080000ED02
:00000001FF
